:100000000C942A000C943F000C943F000C943F0089
:100010000C943F000C943F000C943F000C943F0064
:100020000C943F000C943F000C943F000C943F0054
:100030000C943F000C943F000C943F000C943F0044
:100040000C943F000C943F000C943F000C943F0034
:100050000C943F0011241FBECFE5D8E0DEBFCDBF1A
:1000600010E0A0E6B0E0E6E5F4E002C005900D92F5
:10007000A837B107D9F70E94DC010C9429020C942F
:1000800000004130A1F5813089F028F08230C9F0BC
:10009000833011F108952AB381E090E002C0880F07
:1000A000991F6A95E2F7822B8ABB089527B381E0F6
:1000B00090E002C0880F991F6A95E2F7822B87BBF8
:1000C000089524B381E090E002C0880F991F6A95DB
:1000D000E2F7822B84BB089521B381E090E002C057
:1000E000880F991F6A95E2F7822B81BB0895411111
:1000F00037C0813091F028F08230D9F0833029F177
:1001000008952AB381E090E002C0880F991F6A9594
:10011000E2F7809582238ABB089527B381E090E0BF
:1001200002C0880F991F6A95E2F78095822387BBEA
:10013000089524B381E090E002C0880F991F6A956A
:10014000E2F78095822384BB089521B381E090E09B
:1001500002C0880F991F6A95E2F78095822381BBC0
:1001600008954130A1F5813089F028F08230C9F03E
:10017000833011F108952BB381E090E002C0880F25
:10018000991F6A95E2F7822B8BBB089528B381E013
:1001900090E002C0880F991F6A95E2F7822B88BB16
:1001A000089525B381E090E002C0880F991F6A95F9
:1001B000E2F7822B85BB089522B381E090E002C074
:1001C000880F991F6A95E2F7822B82BB089541112F
:1001D00037C0813091F028F08230D9F0833029F196
:1001E00008952BB381E090E002C0880F991F6A95B3
:1001F000E2F7809582238BBB089528B381E090E0DD
:1002000002C0880F991F6A95E2F78095822388BB08
:10021000089525B381E090E002C0880F991F6A9588
:10022000E2F78095822385BB089522B381E090E0B8
:1002300002C0880F991F6A95E2F78095822382BBDE
:100240000895813041F028F0823039F0833039F060
:1002500008956ABB089567BB089564BB089561BBA8
:1002600008950F931F93CF93DF9300D000D0CDB7A5
:10027000DEB7082F84E0898385E08A8386E08B835C
:1002800087E08C8310E014C0402F50E0012E02C0A4
:10029000559547950A94E2F74170E1E0F0E0EC0FE4
:1002A000FD1FE10FF11D608180E00E94B1001F5F22
:1002B000143050F30F900F900F900F90DF91CF916B
:1002C0001F910F91089541E063E081E00E94B10029
:1002D0008FE39FE10197F1F700C0000040E063E089
:1002E00081E00E94B1000895CF93C82F40E061E003
:1002F00081E00E94B10040E062E081E00E94B10034
:100300008C2F82958F700E9431010E9463018C2F87
:100310000E9431010E946301CF910895CF93C82FAD
:1003200041E061E081E00E94B10040E062E081E0F4
:100330000E94B1008C2F82958F700E9431010E9423
:1003400063018C2F0E9431010E946301CF910895B7
:100350002FEF83EF91E0215080409040E1F700C003
:10036000000082E00E9431010E94630182E00E944D
:1003700031010E94630188E00E9431010E94630103
:100380008CE00E94740181E00E9474010895CF9373
:10039000DF93EC0103C00E948E01219688818111B8
:1003A000FACFDF91CF91089590E4699F800D1124D9
:1003B00080680E947401089540E064E081E00E943A
:1003C000410040E065E081E00E94410041E066E0DC
:1003D00081E00E94410040E067E081E00E9441002E
:1003E00060EF80E00E94210141E061E081E00E9435
:1003F000410041E062E081E00E94410041E063E0B1
:1004000081E00E94410041E060E081E00E94410003
:100410000E94A8010E941E020E942502813649F412
:1004200060E080E00E94D40180E690E00E94C70175
:10043000F3CF8CE690E00E94C701EECF8DB18F7EA6
:100440008DB98DB180648DB90895779BFECF8FB142
:060450000895F894FFCFAF
:1004560049276D20536C61766520320057726F6EA6
:0804660067204461746100008D
:00000001FF
